:020000040800F2
:1000000000500020850F0008A50D0008A70D00086E
:10001000A90D0008AB0D0008AD0D000800000000A0
:10002000000000000000000000000000AF0D00080C
:10003000B10D000800000000B30D0008B50D000868
:10004000CD0F0008CD0F0008CD0F0008CD0F000820
:10005000CD0F0008CD0F0008CD0F0008CD0F000810
:10006000CD0F0008CD0F0008CD0F0008CD0F000800
:10007000CD0F0008CD0F0008CD0F0008CD0F0008F0
:10008000CD0F0008CD0F0008CD0F0008CD0F0008E0
:10009000CD0F0008CD0F0008CD0F0008CD0F0008D0
:1000A000CD0F0008CD0F0008CD0F0008CD0F0008C0
:1000B000CD0F0008CD0F0008B90D0008CD0F0008C6
:1000C000CD0F0008CD0F0008CD0F0008CD0F0008A0
:1000D000CD0F0008C50D0008CD0F0008CD0F00089A
:1000E000CD0F0008CD0F0008CD0F00080000000064
:1000F0000000000000000000000000000000000000
:0C01000000000000000000005FF808F1A3
:10010C0010B5054C237833B9044B13B10448AFF345
:10011C0000800123237010BD0C00002000000000A3
:10012C002810000808B5034B1BB103490348AFF373
:10013C00008008BD000000001000002028100008FE
:10014C0038B50E4B054618784FF47A73B3FBF0F3C1
:10015C000B4A1068B0FBF3F000F086F8044658B96F
:10016C000F2D09D8024629464FF0FF3000F03CF81D
:10017C00044B20461D6038BD012038BD0000002016
:10018C000800002004000020074A08B5136803206B
:10019C0043F01003136000F015F80020FFF7D0FFB8
:1001AC0000F0D8FD002008BD00200240034A044B9B
:1001BC0011681B780B441360704700BF28000020A7
:1001CC0000000020074A0002D36800F4E06023F42A
:1001DC00E0631B041B0C43F0BF6343F40033034385
:1001EC00D360704700ED00E0174B30B5DC68C4F30A
:1001FC000224C4F10703251D042B28BF0423062D5C
:10020C004FF0010598BF002405FA03F303F1FF3307
:10021C0088BF033C1940A14005FA04F4013C22407C
:10022C00002842EA01024FEA0212AFBF00F160401F
:10023C00064B00F00F00D2B2A5BFD2B200F5614060
:10024C001A5480F8002330BD00ED00E014ED00E0FE
:10025C000123420900F01F0003FA00F0014B43F8A0
:10026C002200704700E100E00138B0F1807F0AD233
:10027C00F021064B064A586082F823100020072212
:10028C0098601A6070470120704700BF10E000E0D2
:10029C0000ED00E090F8213010B5022B03D00423C0
:1002AC008363012010BD03681A6822F00E021A60E5
:1002BC001A6822F001021A60184A93421FD01432B5
:1002CC0093421ED0143293421DD0143293421DD04F
:1002DC00143293421DD0143293420CBF4FF480134E
:1002EC004FF080730E4A00245360012380F82130B4
:1002FC00436B80F820407BB19847204610BD01230A
:10030C00F0E71023EEE74FF48073EBE74FF48053E4
:10031C00E8E74FF48033E5E7184610BD08000240CB
:10032C00000002402DE9F74F00221646654BDFF81E
:10033C00A4E1DFF8A4C14FF001080C6808FA06F834
:10034C0008EA0404A0457FD14D68122D00F0AF805F
:10035C0000F28880022D00F0A7807CD8002D00F0E0
:10036C008E80012D00F09E804FF00F09FF2C93BF63
:10037C00824606F18045083DD0F800B092BFB5002A
:10038C00D0F804B0AD0009FA05F82BEA080802FA17
:10039C0005F588BF00F1040A48EA0505CAF80050C3
:1003AC00D1F804A01AF0805F4ED0474D464FAD698E
:1003BC0026F0030845F00105BD61BD6908F18048D0
:1003CC0005F00105019508F5803806F0030B019D39
:1003DC004FEA8B0BD8F8085009FA0BF925EA0909F2
:1003EC003A4DA84268D005F58065A84266D005F55F
:1003FC008065A84264D005F58065A8420CBF032532
:10040C00042505FA0BF545EA0905C8F808501D68DE
:10041C001AF4803F14BF2543A5431D605D681AF490
:10042C00003F14BF2543A5435D609D681AF4801FEF
:10043C0014BF2543A5439D60DD681AF4001F14BF4B
:10044C002C4325EA0404DC600136102E7FF473AFD4
:10045C0003B0BDE8F08F032D22D0112D84D1CA68D2
:10046C00043281E71A4FBD4209D012D8DFF86C90E4
:10047C004D4504D009F580394D457FF475AF8A6838
:10048C00C2B1012A0CBFC0F81080C0F81480082239
:10049C006AE77545F3D06545F1D0DFF84490EBE79A
:1004AC00002261E7CA685FE7CA6808325CE7CA687D
:1004BC000C3259E7042257E70025A2E70125A0E7F3
:1004CC0002259EE700040140001002400008014094
:1004DC00000021100000311000003210000011103B
:1004EC00000022100AB1016170470904FBE7C368E0
:1004FC005940C16070470000044B054A5B68C3F368
:10050C000223D35C034A1068D840704700100240A5
:10051C004010000808000020044B054A5B68C3F338
:10052C00C223D35C034A1068D840704700100240C5
:10053C00401000080800002003680020DA6842F030
:10054C000102DA601A6842F001021A60704790F8F2
:10055C003C3070B5012B4FF002031CD0012280F807
:10056C003D30036880F83C209A6822F47F4222F0E8
:10057C0077029A600A68402A79D019D8102A00F0BC
:10058C0093800AD8002A00F08980012380F83D303E
:10059C00002380F83C30184670BD202A00F08A8079
:1005AC00302AF2D19A6822F0700242F0370236E01B
:1005BC00702A36D01BD8502A42D0602AE5D11C6A4A
:1005CC004D6824F01004CE681C6299691A6A21F4F3
:1005DC00704122F0A00242EA051241EA063199610B
:1005EC001A629A6822F0700242F0670217E0B2F5C4
:1005FC00805F11D0B2F5005FC7D18A684D689C68E6
:10060C00C9682A4324F47F4442EA012222439A60B7
:10061C009A6842F4804202E09A6822F007029A60DB
:10062C00B3E78A684D689C68C9682A4324F47F4400
:10063C0042EA012222439A609A6842F07702EEE77E
:10064C004C68CE68196A1D6A21F00A0125F0010573
:10065C001D629A69214322F0F00242EA06129A6165
:10066C0019629A6822F0700242F05702D7E74C6880
:10067C00CE68196A1D6A21F00A0125F001051D6278
:10068C009A69214322F0F00242EA06129A61196239
:10069C009A6822F0700242F04702C0E79A6822F092
:1006AC00700242F00702BAE79A6822F0700242F038
:1006BC001702B4E79A6822F0700242F02702AEE704
:1006CC007047704770477047036810B51A69044645
:1006DC0091070ED5DA6892070BD56FF002021A61FA
:1006EC0001229B6902779B0777D0FFF7EAFF002373
:1006FC00237723681A69500710D5DA6851070DD58E
:10070C006FF004021A6102229B69227713F4407F76
:10071C00204668D0FFF7D5FF0023237723681A699A
:10072C0012070FD5DA6810070CD56FF008021A61A2
:10073C000422DB692277990720465AD0FFF7C1FFC4
:10074C000023237723681A69D20610D5DA68D006FD
:10075C000DD56FF010021A610822DB69227713F4B1
:10076C00407F20464BD0FFF7ACFF00232377236854
:10077C001A69D10708D5DA68D20705D56FF00102DE
:10078C0020461A6100F0D6FA23681A69100608D5BB
:10079C00DA68110605D56FF0800220461A6100F068
:1007AC00AAF823681A69520608D5DA68500605D5E6
:1007BC006FF0400220461A61FFF785FF23681A6923
:1007CC00910622D5DA6892061FD56FF020022046DA
:1007DC00BDE810401A6100F08DB8FFF771FF20469C
:1007EC00FFF770FF83E7FFF76BFF2046FFF76AFF09
:1007FC0092E7FFF765FF2046FFF764FFA0E7FFF7DE
:10080C005FFF2046FFF75EFFAFE710BD1A4A036893
:10081C0090420AD0B0F1804F07D0A2F594329042AA
:10082C0003D002F58062904215D14A6823F0700320
:10083C001343114A90420AD0B0F1804F07D0A2F571
:10084C009432904203D002F58062904203D1CA6880
:10085C0023F4407313434A6923F08003134303606A
:10086C008B68C3620B688362034B984204BF0B69AD
:10087C000363012343617047002C014010B504460B
:10088C00A0B190F83D3003F0FF021BB980F83C207A
:10089C0000F0F4FA0223206884F83D30211DFFF7A4
:1008AC00B5FF0123002084F83D3010BD012010BDA0
:1008BC0090F83C3010B5012B4FF0020318D080F8A3
:1008CC003D3003680C685A68496822F070025A601F
:1008DC005A6822435A609A6822F080029A609A6899
:1008EC000A439A60012380F83D30002380F83C30A5
:1008FC00184610BD704770470368DA6822F490728E
:10090C00DA605A6922F001025A61202380F83A30E9
:10091C00704700002DE9F0470568C2682B69016932
:10092C0023F4405313432B618368EA680B434169FA
:10093C0022F4B05222F00C020B431343EB606B69B0
:10094C00826923F4407313436B61404B81469D4293
:10095C004FF0190446D1FFF7DFFD04FB00F3D9F883
:10096C0004604FF06408B600B3FBF6F3B3FBF8F386
:10097C001E01FFF7D1FD6043D9F804309B00B0FB9A
:10098C00F3F7FFF7C9FD6043D9F804309B00B0FBC7
:10099C00F3F3B3FBF8F308FB13731B013233B3FB14
:1009AC00F8F303F0F007FFF7B7FD6043D9F8042024
:1009BC009200B0FBF2FAFFF7AFFD6043D9F80430B8
:1009CC009B00B0FBF3F3B3FBF8F308FB13A31B0181
:1009DC003233B3FBF8F303F00F033B433344AB6008
:1009EC00BDE8F087FFF788FD04FB00F3D9F804603D
:1009FC004FF06408B600B3FBF6F3B3FBF8F31E013B
:100A0C00FFF77AFD6043D9F804309B00B0FBF3F795
:100A1C00FFF772FD6043D9F804309B00B0FBF3F391
:100A2C00B3FBF8F308FB13731B013233B3FBF8F37E
:100A3C0003F0F007FFF760FD6043D9F80420920043
:100A4C00B0FBF2FAFFF758FDB7E700BF00380140E2
:100A5C0010B5044640B390F8393003F0FF021BB9CF
:100A6C0080F8382000F044FA2423226884F83930C6
:100A7C00D368204623F40053D360FFF74BFF236861
:100A8C0000201A6922F490421A615A6922F02A0253
:100A9C005A61DA6842F40052DA602023E06384F889
:100AAC00393084F83A3010BD012010BD70477047C2
:100ABC0090F83A3010B5222B36D183680169B3F522
:100ACC00805F0268836A23D15268E9B9C2F30802D5
:100ADC0023F8022B8362C48D013CA4B2C4858CB96B
:100AEC000368DA6822F02002DA60DA6822F4807295
:100AFC00DA605A6922F001025A61202380F83A30F8
:100B0C00FFF7D5FF002010BDD2B223F8012BE1E78F
:100B1C0021B9591C526881621A70DCE75268591C61
:100B2C00816202F07F02F7E7022010BD70470000DF
:100B3C00036870B51A6804461607D9685D6907D151
:100B4C0096065AD58D0658D5BDE87040FFF7B0BF54
:100B5C0015F0010502D111F4907F4ED0D30705D5C5
:100B6C00CE0542BFE36B43F00103E363500704D5AA
:100B7C001DB1E36B43F00203E363930704D51DB18E
:100B8C00E36B43F00403E363160704D51DB1E36B79
:100B9C0043F00803E363E36B002B66D0950604D5A2
:100BAC00880602D52046FFF783FF236820465D693F
:100BBC00E26B110702D415F040051AD0FFF79CFE2A
:100BCC0023685A69520610D55A69606B22F04002AC
:100BDC005A6150B1254B4363FFF75CFB002844D0AE
:100BEC00606BBDE87040436B18472046FFF79EFFD3
:100BFC0070BDFFF79BFFE56370BD160627D50D068C
:100C0C0025D594F83920212A2FD1A268B2F5805F1E
:100C1C00226A17D11188C1F308015960216979B989
:100C2C0002322262E28C013A92B2E284EAB9DA68C8
:100C3C0022F08002DA60DA6842F04002DA6070BDBD
:100C4C000132EEE7511C216212785A60EAE7500635
:100C5C000BD54A0609D5DA68204622F04002DA6044
:100C6C00202384F83930FFF721FF70BD7D0C00087C
:100C7C0008B50023406AC385C384FFF757FF08BD3E
:100C8C002DE9F04186B01022002102A800F0BEF937
:100C9C001D4BDFF87C809A691C4C42F010029A6163
:100CAC009A69404602F010020092009A9A694FF439
:100CBC00005142F004029A619B69002203F0040384
:100CCC000193019BFFF70EFC002220464FF480514C
:100CDC00FFF708FC01274FF400530026022502A958
:100CEC0040460293039704960595FFF71BFB4FF4C0
:100CFC00805302A920460293039704960595FFF7AB
:100D0C0011FB06B0BDE8F081001002400008014064
:100D1C000010014008B5FFF737FAFFF7B1FF00F0FC
:100D2C00CBF800F075F80248FFF706FCFEE700BFB1
:100D3C002C0000200268044B9A4204D14FF400515D
:100D4C000248FFF7D4BB7047000800400010014078
:100D5C00704700000E4B82B09A6942F001029A6112
:100D6C009A6902F001020092009ADA6942F080520C
:100D7C00DA61DB69074A03F080530193019B5368E6
:100D8C0023F0E06343F00073536002B0704700BF80
:100D9C0000100240000001407047FEE7FEE7FEE74E
:100DAC00FEE7704770477047FFF700BA0148FFF73E
:100DBC008BBC00BF2C0000200148FFF7B9BE00BF60
:100DCC006C0000200F4B1A6842F001021A6059683F
:100DDC000D4A0A405A601A6822F0847222F480325A
:100DEC001A601A6822F480221A605A6822F4FE02F1
:100DFC005A604FF41F029A604FF00062034B9A60E6
:100E0C00704700BF001002400000FFF800ED00E04A
:100E1C007FB51022002102A800F0F8F84FF44862C8
:100E2C0014481549002380E8060044F61F6200931D
:100E3C0001938360C26003618361FFF71FFD08B1FA
:100E4C00FFF786FF4FF4805302A90A480293FFF77D
:100E5C007EFB08B1FFF77CFF002369460548009331
:100E6C000193FFF725FD08B1FFF772FF07B05DF89E
:100E7C0004FB00BF2C0000200008004007B50D4B00
:100E8C0002689A4212D103F50233DA691E2042F04D
:100E9C000402DA610022DB69114603F004030193BA
:100EAC00019BFFF7A1F91E20FFF7D2F903B05DF803
:100EBC0004FB00BF0008004008B54FF4165E0A485A
:100ECC000A4B0C2280E80840002342618360C36017
:100EDC0003618361C361FFF7BBFD18B1BDE8084036
:100EEC00FFF736BF08BD00BF6C0000200038014082
:100EFC0010B5044686B01022002102A800F086F836
:100F0C0022681B4B9A4230D103F558439A6902A9C7
:100F1C0042F480429A619A69164802F48042009227
:100F2C00009A9A69002442F004029A619B6903F0CA
:100F3C0004030193019B4FF4007302930223039368
:100F4C0003230593FFF7EEF94FF4806302A90948D8
:100F5C00029303940494FFF7E5F9252022462146D9
:100F6C00FFF742F92520FFF773F906B010BD00BF5B
:100F7C000038014000080140002103E00B4B5B5896
:100F8C00435004310A480B4B42189A42F6D30A4A92
:100F9C0002E0002342F8043B084B9A42F9D3FFF7D6
:100FAC0011FF00F00FF8FFF7B5FE70475010000866
:100FBC00000000200C0000200C000020AC000020E1
:100FCC00FEE7000070B500250C4E0D4CA41BA410C0
:100FDC00A54209D100F022F800250A4E0A4CA41BA8
:100FEC00A410A54205D170BD56F82530984701359F
:100FFC00EEE756F8253098470135F2E7481000081F
:10100C0048100008481000084C1000080346024421
:10101C00934200D1704703F8011BF9E7F8B500BF04
:10102C00F8BC08BC9E467047F8B500BFF8BC08BCBD
:04103C009E46704715
:0810400000000000010203049E
:04104800310100086A
:04104C000D0100088A
:0C105000010000001000000000A24A0493
:0400000508000F855B
:00000001FF
